{
  "contractName": "Xotik",
  "abi": [
    {
      "constant": true,
      "inputs": [],
      "name": "totalSupply",
      "outputs": [
        {
          "name": "",
          "type": "uint256"
        }
      ],
      "payable": false,
      "type": "function"
    },
    {
      "inputs": [],
      "type": "constructor"
    }
  ],
  "bytecode": "0x60606040525b620f42406000600050819055505b606780601f6000396000f360606040526000357c01000000000000000000000000000000000000000000000000000000009004806318160ddd146039576035565b6002565b3460025760486004805050605e565b6040518082815260200191505060405180910390f35b6000600050548156",
  "compiler": {
    "name": "solc",
    "version": "0.4.2+commit.af6afb04.mod.Emscripten.clang"
  },
  "schemaVersion": "3.4.3",
  "updatedAt": "2021-11-21T12:28:33.975Z"
}